:020000020000FC
:1000000010C036C012C012C012C012C012C012C03E
:1000100012C012C012C012C012C012C012C012C050
:1000200012C0F8940FEF0DBF0FC0189518951895D2
:100030001895189518951895189518951895189558
:10004000189518951895189502E00ABB0BB700642F
:100050000BBF05B70C7F05BF789405B7006105BFDE
:1000600005B7006205BF889505B70F7D05BFF5CFC1
:1000700001D01895B03009F021F4B1E006D035D0A8
:100080000895B0E00AD031D0089542E3D99A0DD056
:10009000D99810D04A95D1F7089542E3D99A13D050
:1000A000D9981AD04A95D1F70895FAEFFA95000039
:1000B000E9F70895FAEFE3E1FA950000E9F7EA9528
:1000C0000000D1F70895FDE7E3E0FA950000E9F7B5
:1000D000EA950000D1F70895F9EBE9E1FA950000FF
:1000E000E9F7EA950000D1F70895FAEFEAEFD4E0D6
:1000F000FA950000E9F7EA950000D1F7DA950000DB
:04010000B9F70895AE
:00000001FF
