:020000020000FC
:1000000010C038C012C012C012C012C012C012C03C
:1000100012C012C012C012C012C012C012C012C050
:1000200012C0F8940FEF0DBF0FC0189518951895D2
:100030001895189518951895189518951895189558
:10004000189518951895189502E00ABB0BB700642F
:100050000BBF05B70C7F05BF789401D0FECF05B765
:10006000006105BF05B7006205BF889505B70F7D24
:1000700005BF0895D99A02D0D9981895D1E0EAEF32
:10008000FAEFFA950000E9F7EA950000D1F7DA9562
:060090000000B9F708951D
:00000001FF
